:020000040800F2
:10000000080B00208901000877140008BF130008BE
:100010007514000865030008DF15000800000000E3
:100020000000000000000000000000007B14000839
:100030006703000800000000791400087D14000820
:10004000A3010008A3010008A3010008A301000800
:10005000A3010008A3010008A3010008A3010008F0
:10006000A3010008A3010008A3010008A3010008E0
:10007000A3010008A3010008A3010008A3010008D0
:10008000A3010008A3010008A3010008A3010008C0
:10009000A3010008A3010008A3010008A3010008B0
:1000A000A3010008A3010008A3010008A3010008A0
:1000B000FD140008A3010008A3010008A301000823
:1000C000A3010008A3010008A3010008A301000880
:1000D000A3010008A3010008A3010008A301000870
:1000E000A3010008A3010008A301000800F002F822
:1000F00000F03AF80AA090E8000C82448344AAF188
:100100000107DA4501D100F02FF8AFF2090EBAE885
:100110000F0013F0010F18BFFB1A43F0010318473B
:10012000BC200000DC200000103A24BF78C878C151
:10013000FAD8520724BF30C830C144BF04680C60ED
:10014000704700000023002400250026103A28BF35
:1001500078C1FBD8520728BF30C148BF0B60704739
:100160001FB51FBD10B510BD00F058F81146FFF7C0
:10017000F7FF01F07FFA00F076F803B4FFF7F2FF23
:1001800003BC00F07DF8000009488047094800479B
:10019000FEE7FEE7FEE7FEE7FEE7FEE7FEE7FEE737
:1001A000FEE7FEE704480549054A064B7047000094
:1001B000F9140008ED00000808050020080B0020D5
:1001C00008070020080700204FF0000200B5134682
:1001D00094469646203922BFA0E80C50A0E80C5067
:1001E000B1F12001BFF4F7AF090728BFA0E80C5018
:1001F00048BF0CC05DF804EB890028BF40F8042B11
:1002000008BF704748BF20F8022B11F0804F18BF7D
:1002100000F8012B7047704770477047754600F033
:100220002BF8AE4605006946534620F00700854688
:1002300018B020B5FFF7B6FFBDE820404FF000062C
:100240004FF000074FF000084FF0000B21F00701BE
:10025000AC46ACE8C009ACE8C009ACE8C009ACE801
:10026000C0098D46704710B50446AFF300802046A4
:10027000BDE81040FFF781BF00487047A804002088
:1002800001491820ABBEFEE72600020070470000BF
:1002900070B5044600688168C943C90717D18168F1
:1002A00021F00101816000F0F5FA05460AE000BF87
:1002B00000F0F0FA401B022804D920688068C0438F
:1002C000C00706D020688068C043C007F0D0002077
:1002D00070BDA06A40F01000A062E06A40F001002A
:1002E000E062012070BD0000F8B5002604460096CB
:1002F00000688168C943C9072DD0816841F00101B8
:100300008160164816490068B0FBF1F000E0401E1D
:1003100000900028FBD100F0BDFA054616E000BFB2
:1003200000F0B8FA401B022810D920688068C0434A
:10033000C0070BD0A06A40F01000A062E06A40F055
:100340000100E06284F824600120F8BD2068806824
:10035000C043C007E4D10020F8BD000044000020E5
:1003600040420F00FEE770470023032201F048B926
:10037000F8B50024009490F824202546012A12D0D4
:10038000012280F824204A681F23072A0DD206681C
:10039000776B521E02EB820293409F430B6893409F
:1003A0001F43776319E00220F8BD06680D2A0AD2C0
:1003B000376BD21F02EB820293409F430B6893403E
:1003C0001F43376309E0F76A0D3A02EB820293405C
:1003D0009F430B6893401F43F7620A680723066830
:1003E0000A2A0AD3F7680A3A02EB420293409F4373
:1003F0008B6893401F43F76008E0376902EB4202C5
:1004000093409F438B6893401F4337610A68102ACB
:1004100001D0112A20D1124B02689A4217D1936859
:100420001B0219D4936843F40003936009681029F0
:1004300012D10C490C4A0968B1FBF2F101EB8101C0
:10044000490000E0491E00910029FBD104E0816AC7
:1004500041F020018162012480F824502046F8BD3B
:10046000002401404400002040420F000068C06C9E
:10047000704700002DE9F0414FF0000704003D46B1
:100480007ED0A06A002628B9E66284F8246020465F
:1004900000F07EF82046FFF7FBFEA16AC90600D4F3
:1004A00020B1A06A40F01000A06269E0A16A21F4C6
:1004B000885141F00201A1626268E169237B0A432D
:1004C00047EA43010A43A1684FF48077B94209D053
:1004D000012907D05FF0000194F814C0BCF1010FAE
:1004E00002D00AE03946F7E7F3B1A36A43F02003EC
:1004F000A362E36A43F00103E3622368D3F804C014
:100500002CF4694C4CEA010CC3F804C021688B68D8
:10051000DFF870C003EA0C0313438B60A168B94293
:100520000BD0012909D00CE0DFF85CC0A3690CEB0B
:1005300043330B4343F40061DFE7218A0D05A5F542
:1005400080152168CB6A23F470032B43CB622168AA
:1005500089680E4B1940914208D1E662A16A21F0E8
:10056000020141F00101A162BDE8F081A06A20F022
:10057000020040F01000A062E06A40F00100E0627A
:100580000120F1E7FDF7E1FF00E0FFFFFE0E1FFF96
:1005900000B585B00021009101910291039100689E
:1005A0000E49884218D10E48816941F40071816179
:1005B000816901F400710491816941F00401816154
:1005C0008069694600F00400049001200090032037
:1005D0000190044800F068F805B000BD0024014017
:1005E000001002400008014070B5044690F8240055
:1005F00001280DD0012084F824002046FFF774FE66
:1006000002004FF0000005D084F82400104670BDB1
:10061000022070BDA16A40F20123994341F4807128
:10062000A1621F4D23681F49AB4218D10E6816F412
:10063000702F14D0A66A46F48016A6620E6876055E
:1006400005D5A66A26F4005646F48056A662A66A28
:10065000F6040AD5E66A26F00606E66206E0A66A11
:1006600026F48016A6625E68E9E7E06284F824005A
:100670006FF00200186020688368C3F34243072BC1
:1006800005D1A84208D1096811F4702F04D08168FF
:1006900041F480118160B9E7816841F4A001F9E774
:1006A00000280140042401402DE9F84FDFF8B891FB
:1006B000002409F1040A0AF1040B23460F270BF169
:1006C000040EC9E00125A5402A40AA427DD1674E0B
:1006D000D1F804C0ACEB0608B44532D014DCBCF150
:1006E000030F3AD009DCBCF1000F2AD0BCF1010F96
:1006F0001CD0BCF1020F31D11DE0BCF1110F17D09D
:10070000BCF1120F2AD119E0B8F5881F19D006DC08
:10071000B8F5803F15D0B8F5801F1FD111E0B8F5AE
:10072000001F0ED0B8F5041F18D10AE0CB6815E001
:10073000CB681B1D12E0CB6808330FE0CB680C338D
:100740000CE08B682BB1012B4FF0080303D04561FF
:1007500004E0042302E0056100E00023FF2A01D841
:10076000064601E000F104064FEA840501D9A5F12F
:100770002005D6F8008007FA05FC28EA0C0803FAE1
:1007800005F548EA0508C6F800804D68ED0062D519
:10079000374DAE6946F00106AE61AD6924F003063F
:1007A00005F001050095334D06EB050CDCF808500B
:1007B000A607360F07FA06F825EA0805DFF8B8801D
:1007C000404503D14FF0000817E044E0DFF8AC806B
:1007D000404502D14FF001080FE0DFF8A48040450A
:1007E00002D14FF0020808E0DFF89880404502D1BE
:1007F0004FF0030801E04FF0040808FA06F848EA51
:100800000508CCF808804D68D9F80060ED034D4626
:1008100001D5164300E096432E604D68DAF800607B
:10082000AD03554601D5164300E096432E604D6852
:10083000DBF80060ED025D4601D5164300E096430B
:100840002E604D68DEF80060AD02754601D5164396
:1008500000E096432E60641C0D682A46E5407FF454
:1008600031AFBDE8F88F0000000401400000111016
:10087000001002400000014000080140000C01404F
:1008800000100140001401400AB1016170470904E1
:10089000FBE7000001488068704700003800002036
:1008A0000248816802781144816070473800002056
:1008B000074810B5016841F010010160032000F005
:1008C00075F80F2000F006F800F024F8002010BDA5
:1008D0000020024070B50D4D04464FF47A7128781F
:1008E000B1FBF0F00A490968B1FBF0F000F042FBFF
:1008F00048B9102C07D200222146501E00F036F8CD
:1009000000206C6070BD012070BD00003800002028
:10091000440000200C4808B5816941F00101816163
:10092000816901F001010091C16941F08051C1610B
:10093000C06900F0805000900448416821F0E061F7
:1009400041F00071416008BD00100240000001400C
:10095000002809DB00F01F020121914040098000BE
:1009600000F1E020C0F8001170470000F0B40E4B19
:100970001B680C46C3F30223C3F10705042D00D9FD
:100980000425191D072901D2002300E0DB1E0126E2
:1009900006FA05F1491E214099409E40761E1640F8
:1009A0003143F0BC00F01CBE0CED00E0064900F045
:1009B000070208684FF6FF03184040EA0220034A86
:1009C00010430860704700000CED00E00000FA05DD
:1009D0002DE9F84305460078354CC00754D0E0694E
:1009E0000026C00008D4E06940F08050E061E06972
:1009F000012600F0805000902E480168C90512D4ED
:100A00000168804641F480710160FFF743FF0746AB
:100A100005E000BFFFF73EFFC01B642823D8D8F8CD
:100A20000000C005F6D5206A10F4407021D0A988D6
:100A300001F4407181421CD0206A1F49012220F438
:100A400040700A6000220A602062C00711D0FFF7E0
:100A500021FF074641F2883808E000BFFFF71AFF80
:100A6000C11B414502D90320BDE8F883206A8007F5
:100A7000F4D5206A696820F44070084320621EB1F2
:100A8000E06920F08050E0612878800705D5606833
:100A9000A96820F44040084360602878C00605D566
:100AA0006068E96820F48000084360600020DBE7AC
:100AB0000010024000700040400442422DE9F0471F
:100AC0000F46050061D0434E306800F00700B84281
:100AD00009D2306820F0070038433060306800F0F9
:100AE0000700B84251D128683B4C810712D5400716
:100AF00003D5606840F4E06060602878000703D5A3
:100B0000606840F4605060606068A96820F0F000A0
:100B1000084360602878C00728D06868012810D092
:100B20002168022810D0890700292EDA616821F097
:100B3000030101436160FFF7ADFE804641F2883951
:100B40000DE021688903EFE78901EDE7FFF7A2FED9
:100B5000A0EB0801494502D90320BDE8F087606891
:100B6000696800F00C00B0EB810FEFD1306800F045
:100B70000700B8420BD9306820F0070038433060D6
:100B8000306800F00700B84201D00120E5E728787E
:100B9000400705D56068E96820F4E06008436060BC
:100BA0002878000706D56068296920F4605040EA7B
:100BB000C100606000F018F86168084AC1F30311D1
:100BC000515CC8400649086006480068FFF782FE8D
:100BD0000020C2E70020024000100240CC210008A3
:100BE000440000203C00002012A185B00FC98DE810
:100BF0000F0014A0144A006804905168134801F0D3
:100C00000C03042B10D0082B0ED1C1F38343C9036E
:100C10001DF803000AD5516804AAC1F34041515C94
:100C20000A4A5043B0FBF1F005B070470849484309
:100C3000FAE7000002030405060708090A0B0C0D79
:100C40000E0F1010010200000010024000127A0086
:100C500000093D002DE9F84F040070D02078C04D08
:100C6000C00749D06868C0F38100012807D06868D0
:100C7000C0F38100022809D16868C00306D528683E
:100C8000800339D560680028E7D035E06068B0F5AA
:100C9000803F0BD010B1B0F5A02F11D0286820F400
:100CA00080302860286820F4802002E0286840F422
:100CB00080302860606890B1FFF7ECFD06460AE0DE
:100CC000286840F480202860F0E700BFFFF7E2FDCD
:100CD000801B642873D828688003F7D50CE0FFF7E1
:100CE000D9FD064605E000BFFFF7D4FD801B642850
:100CF000F0D828688003F7D420789A4E80074FF008
:100D000001094FF0000839D5686810F00C0F07D0C2
:100D10006868C0F38100022809D16868C00306D45E
:100D20002868800714D52069012808D110E02069BF
:100D3000B0B1C6F80090FFF7ADFD074605E00AE147
:100D4000FFF7A8FDC01B0228C4D828688007F7D584
:100D50002868616920F0F80040EAC10028600DE0D1
:100D6000C6F80080FFF796FD074604E0FFF792FD06
:100D7000C01B022823D828688007F7D420780007F2
:100D80002CD57948A169D9B1C0F80090FFF782FD50
:100D9000074604E0FFF77EFDC01B02280FD8686AF3
:100DA0008007F7D571484FF4FA510068B0FBF1F0B5
:100DB000009000BF0098411E0091FAD20EE080E042
:100DC000C0F80080FFF766FD074604E0FFF762FD0C
:100DD000C01B022875D8686A8007F7D420784007BE
:100DE00060D5E8690027C00008D4E86940F0805069
:100DF000E861E869012700F0805000905C480168D4
:100E0000C90513D40168834641F480710160FFF77E
:100E100041FD824606E000BFFFF73CFDA0EB0A0063
:100E200064284ED8DBF80000C005F5D5E06801283D
:100E30000AD008B1052813D0286A20F001002862E2
:100E4000286A20F0040002E0286A40F001002862CD
:100E5000E06841F2883B98B1FFF71CFD82460BE049
:100E6000286A40F004002862EEE700BFFFF712FD99
:100E7000A0EB0A0159455AD8286A8007F6D50CE03C
:100E8000FFF708FD824605E0FFF704FDA0EB0A012D
:100E900059454CD8286A8007F6D41FB1E86920F07C
:100EA0008050E861E06988B36968C1F38101022973
:100EB00044D00228C6F8608004D0FFF7EBFC04465B
:100EC00038E034E0FFF7E6FC074604E0FFF7E2FC19
:100ED000C01B02282BD828688001F7D4206AB0F5FF
:100EE000803F05D16868A16820F40030084368603D
:100EF000D4E908010843696821F474110843686063
:100F0000C6F86090FFF7C6FC044606E025E000BF87
:100F1000FFF7C0FC001B022809D828688001F7D51C
:100F20001BE000BFFFF7B6FC001B022802D903201C
:100F3000BDE8F88F28688001F4D40EE00128F7D0CE
:100F40006868226A00F48031914204D1616A00F439
:100F50007010884201D00120EAE70020E8E7000095
:100F6000001002400000424280044242440000203F
:100F70000070004010B5401EB0F1807F01D3012009
:100F800010BD4FF0E02460610F21601700F028FBD6
:100F90000020A06107202061002010BD704770472D
:100FA00070B590F83C20012A26D0012480F83C40FE
:100FB000022280F83D2003685A689D6822F070067E
:100FC0000A6832435A600D4B02689A4208D0B2F167
:100FD000804F05D00A4B9A4202D00A4B9A4204D164
:100FE000496825F080031943916080F83D40002155
:100FF00080F83C10084670BD022070BD002C0140F6
:10100000000400400008004010B5040003D094F82C
:101010003D0010B107E0012010BD002084F83C0025
:10102000204600F01FF8022084F83D00211D2068B2
:1010300000F06AFA012084F8460084F83E0084F843
:101040003F0084F8400084F8410084F8420084F8AE
:10105000430084F8440084F8450084F83D000020F3
:1010600010BD000008B50068B0F1804F12D10A48E9
:10107000C16941F00101C161C069002200F00100B5
:10108000009011461C20FFF771FCBDE808401C20B1
:10109000FFF75EBC08BD00000010024090F83D1054
:1010A000012901D001207047022180F83D1001681C
:1010B000CA6842F00102CA6000680B49884208D041
:1010C000B0F1804F05D00949884202D008498842D2
:1010D00004D1816801F00701062903D0016841F0BD
:1010E0000101016000207047002C01400004004015
:1010F0000008004070B5044690F83C00012817D065
:10110000012584F83C50022084F83D002068826864
:1011100022F0770222F47F4282600868502830D0A3
:101120000DDC20284DD005DC98B310283BD148E0D9
:10113000022070BD302844D0402834D139E06028E6
:1011400028D0702806D0B0F5805F2CD0B0F5005FB5
:1011500029D10AE0CB68D1E90121206800F00AFA20
:101160002068816841F0770109E0CB68D1E901216D
:10117000206800F0FFF92068816841F480418160B7
:1011800011E0CA684968206800F006FA502120681A
:1011900007E016E0CA684968206800F00EFA60218E
:1011A000206800F0F1F984F83D50002084F83C00FC
:1011B00070BDCA684968206800F0EEF940212068D7
:1011C000EFE7226801461046EBE7704770B504462A
:1011D000006801694FF00005C943890715D4C1684B
:1011E000C943890711D4E91E0161012020772068D5
:1011F00080698007204602D0FFF7E7FF04E000F097
:1012000098F8204600F096F8257720680169C943D0
:10121000490717D4C168C943490713D46FF00401C3
:101220000161022020772068806910F4407F204609
:1012300002D0FFF7CAFF04E000F07BF8204600F080
:1012400079F8257720680169C943090716D4C16870
:10125000C943090712D46FF0080101610420207707
:101260002068C0698007204602D0FFF7AEFF04E087
:1012700000F05FF8204600F05DF8257720680169EE
:10128000C943C90617D4C168C943C90613D46FF04E
:1012900010010161082020772068C06910F4407FA8
:1012A000204602D0FFF791FF04E000F042F820460C
:1012B00000F040F8257720680169C943C90708D1C3
:1012C000C168C943C90704D1891E0161204600F0E5
:1012D00033F820680169C943090609D4C168C943C4
:1012E000090605D46FF0800101612046FFF756FE24
:1012F00020680169C943490609D4C168C943490640
:1013000005D46FF040010161204600F057F82068D5
:101310000169C94389060BD4C168C943890607D44A
:101320006FF0200101612046BDE87040FFF737BE35
:1013300070BD70477047000030B51C4900680968EF
:10134000884232D11A480178032929D14169C82934
:1013500026DA164B028A483323F81120154A838C6B
:1013600022F8113002EB410333F8024C32F81150ED
:10137000AC4213D2022911DB33F8023C32F81120BF
:101380000D4C9B1A826924F812304B1E643424F8E9
:101390001230C369521C5B1CC0E90623491C416121
:1013A0004169C72901DDC821416130BD78000020B5
:1013B0000000002050020020E00300207047FEE7FC
:1013C0003EB5002410480094019402940D498460B5
:1013D000016004730475012505614FF460214460C8
:1013E000C161FFF747F808B172B6FEE7CDE90045E5
:1013F000694605480294FEF7BBFF002801D072B68B
:10140000FEE73EBD002401404800002010B586B034
:1014100000241748009401940294039404944FF01C
:101420008041059401604FF4F071C0E9011442F26B
:101430000F71C0E9031480218161FFF7E5FD08B158
:1014400072B6FEE74FF48050009069460848FFF7F7
:1014500051FE08B172B6FEE7049404A9044805944D
:10146000FFF79EFD002801D072B6FEE706B010BD62
:1014700078000020FEE7FEE770477047FFF710BADC
:1014800030B593B028216846FEF79EFE14210AA8C5
:10149000FEF79AFE0024022501200F940490009587
:1014A0001020059012944FF42010CDE908401194BB
:1014B000109407956846FFF7CDFB08B172B6FEE7BA
:1014C0000F20CDE90A054FF48060CDE90C400121E1
:1014D0000AA80E94FFF7F2FA08B172B6FEE74FF4CD
:1014E000804011900F950FA8FFF772FA002801D0E5
:1014F00072B6FEE713B030BD704700000148FFF739
:1015000065BE000078000020F0B50268164B174C4D
:10151000174D4FF08047984205D0B84203D0A04203
:1015200001D0A84203D122F070064A6832439842A3
:1015300005D0B84203D0A04201D0A84203D122F482
:101540004074CA6822434C6922F080022243026040
:101550008A68C2620A688262984201D1096901639D
:1015600001214161F0BD0000002C01400004004059
:101570000008004010B5846842EA032224F47F4446
:101580000A432243826010BD826822F070020A433F
:1015900042F007018160704710B5036A046A24F0C5
:1015A00001040462846924F0F00444EA021423F084
:1015B0000A020A438461026210BD10B5036A23F077
:1015C000100303628369046A23F4704343EA02321E
:1015D00024F0A00343EA01118261016210BDFEE71D
:1015E0000907090E002804DB00F1E02080F8001450
:1015F000704700F00F0000F1E02080F8141D7047E4
:1016000070B50026072902D9083989B20126154C80
:10161000012804D0022808D003280CD012E0A069C9
:1016200040F00400A06110480AE0A06940F0080002
:10163000A0610E4804E0A06940F01000A0610C48D1
:1016400000EB86052C6888000F268640B4432C608A
:101650008240022000EB8100834028681A43024345
:101660002A6070BD0010024000080140000C0140DB
:101670000010014008B5FFF71BF9FFF701FF5F48B5
:10168000816941F020018161816901F020010091AF
:10169000816941F004018161806900F004000090DB
:1016A000FFF78EFEFFF7B2FE5548FFF7F7FC052166
:1016B0000120FEF759FE00210220FEF755FE012110
:1016C0000220FEF751FE07210120FEF74DFEDFF854
:1016D00034814FF4827A40F2BC7B08F164094A4DB0
:1016E00000F0CAF8686200235A464FF4F771CDF84B
:1016F00000A000F08FF82861C82801DB03212970C1
:10170000322805DA2878032802D1012028702862BF
:10171000287800F089F8286A0128E1D100263446AB
:10172000AF6945E076B938F81410404651B1B9F8C0
:10173000002001262A81B9F80010E980018869801B
:101740000088A88038F914104046B5F9022091426B
:101750000EDD30F8141059B130F91410491C07D0BF
:10176000012C05DD30F81410698039F81410298136
:1017700030F91410B5F9042091420EDA30F8141043
:1017800059B130F91410491C07D0012C05DD30F88F
:101790001400A88039F81400E88039F8140000F02B
:1017A000ECFAD5E90C2300F0C5F8C5E90C01641C7E
:1017B000BC42B7DDE86900F0C9FA02460B46D5E93C
:1017C0000C0100F06BF90022104B00F067F90246A3
:1017D0000B4600200E4900F061F900F061F8C5E900
:1017E0000A010748E988483030F8111069812989D1
:1017F00030F81100A8810020286271E70010024033
:1018000078000020E0030020000000200000594084
:1018100000004E4010B5401A029CE41A6043511A71
:1018200090FBF1F0184410BD70B5114E044670786D
:1018300084421AD00F4D012C04D0022C04D0032C6A
:1018400009D012E0002207E0012211462846FFF7E6
:101850001BF8012205E0012201212846FFF714F8B8
:10186000002202212846FFF70FF8747070BD0000B7
:1018700000000020000C014070B5002425460748F8
:10188000FEF7B2FE0548FEF7F1FD6D1C0444642D21
:10189000F5DB642094FBF0F070BD000048000020F0
:1018A0002DE9F04D07460E4600F040FB04460D467C
:1018B0003A46334600F094FBDFF86CA0DFF86CB0DA
:1018C0001B4B0746884616F0004F4FF000020AD027
:1018D00000F066FA0AD900225B463846414600F01D
:1018E000EFFA1BD212E000F05BFA08D20022534656
:1018F0002046294600F080FB04460D460EE00022FB
:101900005B463846414600F0DBFA07D800225346D2
:101910002046294600F00EF804460D463146204682
:1019200065F31E01BDE8F08D0000F03F0000E03FD0
:101930000000E0BF10B591EA030F48BF83F00043F9
:1019400000F16283841A71EB030C05D2121943EB88
:101950000C03001B61EB0C01DFF824E14FEA11548A
:10196000A4EB135C1EEA430F18BF9EEA445F73D0DA
:1019700023EA0E03DCF1200E21EA045143F4801324
:1019800032D322FA0CFE10EB0E0023FA0CFE41EBD0
:101990000E01CCF1200E03FA0EFE10EB0E0051F1F9
:1019A0000001B1F5801FCCF1200E32D201EB0451C1
:1019B00012FA0EF2BDE8104058BF7047401C38BF05
:1019C0005FEA420218BF7047002814BF20F00100F0
:1019D00041F100014FEA410313F5001F38BF704782
:1019E000A1F1C04100F066BA012A43EB0302ACF159
:1019F000200CDCF11F0E32BF4FF0000E23FA0CF367
:101A000010EB030041EB0451B4EB115FD0D0A1EB1C
:101A1000045101F5801149085FEA300001EB0451DF
:101A20000ED350F1000038BF12FA0EFE08D1BDE807
:101A30001040C9E7401C38BF5FEA4202CAD1C3E781
:101A4000BDE810404FEA410313F5001F38BF70474F
:101A5000A1F1C04100F02EBA9EEA445F08D011EA1D
:101A60005E0FBDE8104004BF01F000410020704748
:101A7000BDE8104070B500F0CFF900BF64FBBE3E7A
:101A80000000E0FF491058BFC1F140415B1058BF52
:101A9000C3F140438B42EFF3008070472DE9C04112
:101AA00030B4DFF8A0C23CEA111418BF3CEA1314AA
:101AB00000F0EC8081EA03051CEA111444EAD574B5
:101AC00018BF1CEA131500F0C780A4EB05044FF003
:101AD000004545EAC12145EAC32341EA505143EAA2
:101AE000525304F17F74994204F500344FEAC02048
:101AF0004FEAC22208BF904200F09C804FEA136573
:101B00000FF24016765D4FEA134506FB05F7C7F165
:101B1000807706FB07F74FEAD737A7FB03687642C3
:101B2000C8F58038A7FB06CE38BFA8F1010807FB2F
:101B300008E64FF0000EA6FB028CE6FB03CEDCF1BC
:101B4000000CCEF1004E38BFAEF1010EA6FB0C58D2
:101B50004FF000074FF00005E6FB0E87A1FB08C61B
:101B6000A0FB07CE16EB0E0645F10005E1FB07656D
:101B700015F1E04E7EBFA4F580345FEA46066D4164
:101B800016F1800745F100054FEA17274FEA066670
:101B900047EA0567A6F1DE46B6F1805F4FEA1525F4
:101BA0001FD9384624F0010C05EBC471BCF1FE6F5F
:101BB00001EB0C1102D8F0BCBDE8008124425CBFEF
:101BC00001F5801E9EEAC47F02D4F0BCBDE800810E
:101BD000244238D4F0BCA1F1C041BDE8004100F07E
:101BE00069B94FEAD22242EA43524FEAD323A7FB14
:101BF00002864FEAD02040EA415007FB03661EEA06
:101C00000E0F4FEAD12105FB026658BFA6EB005626
:101C1000B6EB00564FEA520E4EEAC37E18EB0E0E9C
:101C200056EB530EBDD518EB02085E417F1C55F1F3
:101C30000005B6E74FF480154FF000074FF000069F
:101C40004FF00008ADE7F0BC4FF0000001F1C041DB
:101C500001F00041BDE8008111EA0C1F0CEA1315E8
:101C600000D00CE013EA0C1F00F025804FF00000BC
:101C7000F0BC81EA030101F00041BDE80081F0BC45
:101C8000BDE8004181EA030100F014B9F0BCBDE8F1
:101C9000004170B500F0C0F8097EFC3E00F007B8C6
:101CA00081EA03014FF0000001F00041704781EA32
:101CB000030100F0FFB8F0BCBDE800414FF00000A8
:101CC00021497047FFFDFBF9F7F5F4F2F0EEEDEB7B
:101CD000E9E8E6E4E3E1E0DEDDDBDAD8D7D5D4D32A
:101CE000D1D0CFCDCCCBCAC8C7C6C5C4C2C1C0BF76
:101CF000BEBDBCBBBAB9B8B7B6B5B4B3B2B1B0AF7C
:101D0000AEADACABAAA9A8A8A7A6A5A4A3A3A2A15F
:101D1000A09F9F9E9D9C9C9B9A999998979796951A
:101D200095949393929191908F8F8E8E8D8C8C8BB6
:101D30008B8A89898888878786858584848383823E
:101D4000828181800000FF070000F87F10F00042D0
:101D500048BF4042B0FA80F310FA03F10AD0C3F151
:101D60001D0303F580634FEA415002EB035202EB7F
:101D7000D12170474FF000007047B0FA80F310FA9D
:101D800003F10AD0C3F11D0303F580634FEA41500C
:101D90004FEA035202EBD12170474FF00000704729
:101DA00051EA030C17D41CF5801F58BFBCF5801FE7
:101DB00000F10680994218BF704708BF90427047F3
:101DC00007D711F5801F58BF13F5801F19D499420A
:101DD0007047894270471CF5801F08D5BCF5801FED
:101DE000F7D58B4218BF704708BF824270474FF447
:101DF000001C1CEB410F38BF1CEB430F01D28B4280
:101E0000704770B500F008F8922449004FF0005177
:101E10004FF08053FFF736BE0EF1020E2EF0030E88
:101E20005EF8046B364205D4012A43EB030515F531
:101E3000001F12D8012841EB010C1CF5001F0CD823
:101E40000ED14FEAD17C15F5001F0CEB4C0C0CF1B8
:101E5000020C08BF4CEBD37C04E04FF0080C01E00F
:101E60004FEAD37C0CEB4C0526FA05F606F0070684
:101E7000B6F1040C06D20EEB860CBDE870404CF0B7
:101E8000010C6047DFE80CF0090B02024FF0004143
:101E90004FF00000A1F5002170BD19461046012841
:101EA00051EB010418BFD4F5001484BF002001F0E9
:101EB000004170BD0808A0F500114FEA31017047DC
:101EC00053EA010C17D41CF5801F58BFBCF5801FC6
:101ED00000F106808B4218BF704708BF82427047EE
:101EE00007D713F5801F58BF11F5801F19D48B42F7
:101EF00070479B4270471CF5801F08D5BCF5801FBA
:101F0000F7D5994218BF704708BF904270474FF409
:101F1000001C1CEB430F38BF1CEB410F01D2994250
:101F200070470FB40CBC03BCFFF76BBF5FEA410CFA
:101F30005FEA5C5CACF580635B1C39D4D3F134029E
:101F400040F34580B2F1200314DA4FF0010C0CFA93
:101F500002FCACF101030340B3EB5C0220EA030096
:101F600008BF10EA0C0F98BF704710EB0C0041F14E
:101F7000000170470AD0C3F1200201FA02FC0128D7
:101F800021FA03F101FA03F14CF100004FF0010CCA
:101F90000CFA03FCACF10103B0F1004F21EA03019C
:101FA00008BF11EA0C0F4FF0000088BF6144704772
:101FB000B3F1FF3F28BF50EAC12C01F000414FF0C0
:101FC000000084BF41F07C5141F470017047B3F5CB
:101FD000806FB8BF704770B5FFF71EFF40DBB6BE1D
:101FE00091EA030F10B581F000413FF5ABAC83F0EF
:101FF000004300F009B8000010B591EA030F48BF94
:1020000083F000433FF59EAC841A71EB030C07D2BA
:1020100012198CF0004C43EB0C03001B61EB0C011C
:10202000DFF8A4E14FEA1154A4EB135C1EEA430F5E
:1020300018BF9EEA445F00F0B08023EA6E0352426C
:1020400021EA0451C3EB6E0338BF5B1EDCF1200EA6
:1020500025D322FA0CFE10EB0E0043FA0CFE41EBE6
:102060000E01CCF1200E03FA0EFE10EB0E0051F122
:102070000001CCF1200E29D412FA0EF201EB04512A
:10208000BDE8104058BF7047401C1CBFB2F1004F64
:10209000704700280CBF491C20F00100704712EB6C
:1020A000020E43EB030218BF4FF0010E4EEA42024C
:1020B000ACF1200CDCF11E0E54D943FA0CFE10EBEF
:1020C0000E0051F1FF31CCF11E0ED5D50EF1010EEF
:1020D00012FA0EFE404141EB010101EB445C5FEA64
:1020E0005C5C10D910EBDE7001EB045138BFBEF11F
:1020F000004FBDE8104018BF704700280CBF491CB6
:1021000020F00100704730D24FEAD42C11F50011B5
:1021100024F400641BD0B1FA81F20B3AA41AA41E75
:10212000D2F12003914030FA03F31943904001EBC0
:10213000CC71002C01EB0451BDE81040A8BF7047E2
:1021400001F1C0414FF0000001F000417047B0FACA
:1021500080F310FA03F100D110BDE41A173C4805D2
:10216000C90AE4E701EB045110BD491001EB045129
:10217000BDE810404FEA300002E04FF00001704728
:102180004A0008BF0042F8D0B2F5001F28BF7047D0
:1021900001F000414FF0000070479EEA445F07D015
:1021A00011EA5E0FBDE8104004BF00210020704717
:1021B000BDE8104070B5FFF72FFE00BF40DFF63ED0
:1021C00083F00041104670470000E0FF000000006F
:1021D000000000000102030406070809FC210008B2
:1021E00000000020480000002801000844220008E8
:1021F00048000020C00A000044010008010000005F
:1022000000000000000000000000000000000000CE
:1022100000000000000000000000000000000000BE
:1022200000000000000000000000000000000000AE
:10223000000000000100000010000000000000008D
:042240000024F40082
:04000005080000ED02
:00000001FF
